:100B9000FF3FFF3FFF3FFF3FFF3FFF3FFF3FFF3F65
:100BA000FF3FFF3FFF3FFF3FFF3FFF3FFF3FFF3F55
:100BB000FF3FFF3FFF3FFF3FFF3FFF3FFF3FFF3F45
:100BC000FF3FFF3FFF3FFF3FFF3FFF3FFF3FFF3F35
:020000040001F9
:10E000003E00FF00FF00FF00FF00FF00FF00FF00D9
:10E0000001000100FF00FF00FF00FF00FF00FF0014
:10E01000FF00FF00FF00FF00FF00FF00FF00FF0008
:10E02000FF00FF00FF00FF00FF00FF00FF00FF00F8
:10E03000FF00FF00FF00FF00FF00FF00FF00FF00E8
:10E04000FF00FF00FF00FF00FF00FF00FF00FF00D8
:10E05000FF00FF00FF00FF00FF00FF00FF00FF00C8
:10E06000FF00FF00FF00FF00FF00FF00FF00FF00B8
:10E07000FF00FF00FF00FF00FF00FF00FF00FF00A8
:10E08000FF00FF00FF00FF00FF00FF00FF00FF0098
:10E09000FF00FF00FF00FF00FF00FF00FF00FF0088
:10E0A000FF00FF00FF00FF00FF00FF00FF00FF0078
:10E0B000FF00FF00FF00FF00FF00FF00FF00FF0068
:10E0C000FF00FF00FF00FF00FF00FF00FF00FF0058
:10E0D000FF00FF00FF00FF00FF00FF00FF00FF0048
:10E0E000FF00FF00FF00FF00FF00FF00FF00FF0038
:10E0F000FF00FF00FF00FF00FF00FF00FF00FF0028
:10E10000FF00FF00FF00FF00FF00FF00FF00FF0017
:10E11000FF00FF00FF00FF00FF00FF00FF00FF0007
:10E12000FF00FF00FF00FF00FF00FF00FF00FF00F7
:10E13000FF00FF00FF00FF00FF00FF00FF00FF00E7
:10E14000FF00FF00FF00FF00FF00FF00FF00FF00D7
:10E15000FF00FF00FF00FF00FF00FF00FF00FF00C7
:10E16000FF00FF00FF00FF00FF00FF00FF00FF00B7
:10E17000FF00FF00FF00FF00FF00FF00FF00FF00A7
:10E18000FF00FF00FF00FF00FF00FF00FF00FF0097
:10E19000FF00FF00FF00FF00FF00FF00FF00FF0087
:10E1A000FF00FF00FF00FF00FF00FF00FF00FF0077
:10E1B000FF00FF00FF00FF00FF00FF00FF00FF0067
:10E1C000FF00FF00FF00FF00FF00FF00FF00FF0057
:10E1D000FF00FF00FF00FF00FF00FF00FF00FF0047
:10E1E000FF00FF00FF00FF00FF00FF00FF00FF0037
:10E1F000FF00FF00FF00FF00FF00FF00FF00FF0027
:020000040001F9
:04000E00C439FF1ED4
:020000040001F9
:08000000FF3FFF3FFF3FFF3F00
:00000001FF